S01300004578706572696D656E74332E73726563BD
S11300000C9466000C9483000C9483000C9483007D
S11300100C9483000C9483000C9483000C94830050
S11300200C9483000C9483000C9483000C94830040
S11300300C9483000C9483000C9483000C94830030
S11300400C9483000C9483000C9483000C94830020
S11300500C9483000C9483000C9483000C94830010
S11300600C9483000C9483000C9483000C94830000
S11300700C9483000C9483000C9483000C948300F0
S11300800C9483000C9483000C9483000C948300E0
S11300900C9483000C9483000C9483000C948300D0
S11300A00C9483000C9483000C9483000C948300C0
S11300B00C9483000C9483000C9483000C948300B0
S11300C00C9483000C9483000C94830011241FBEB1
S11300D0CFEFD8E0DEBFCDBF11E0A0E0B1E0E6E7AE
S11300E0F6E002C005900D92AE30B107D9F721E0D9
S11300F0AEE0B1E001C01D92AE30B207E1F70E945C
S113010095000C9439030C940000FC012181622BAE
S113011061830895FC012281622B62830895FC01AE
S113012092816095692362830895CF93DF93CDB75D
S1130130DEB72E970FB6F894DEBF0FBECDBF60E8D2
S113014075E280EC90E00E94D80260E875E288ECE9
S113015090E00E94D80260E875E280ED90E00E9491
S1130160D80240EA55E266E270E08CE490E00E9436
S1130170670282E5898387E0E0E0F1E0DE01129620
S113018001900D928A95E1F786E0E7E0F1E0DE0167
S1130190199601900D928A95E1F78CE490E00E9403
S11301A0B50146E050E0BE016E5F7F4F88EC90E001
S11301B00E94EA02AE014F5F5F4F6CEA70E08CE48C
S11301C090E00E94B902811102C0882399F345E0AE
S11301D050E0BE01675F7F4F88EC90E00E94EA0226
S11301E0698188EC90E00E94E4026AE088EC90E087
S11301F00E94E40280E090E02E960FB6F894DEBFF1
S11302000FBECDBFDF91CF9108958F929F92AF9291
S1130210BF92CF92DF92EF92FF921F93CF93DF931F
S11302201F92CDB7DEB7603408F041C049015A01CE
S11302307C01162F1064AE014F5F5F4F612F0E9447
S1130240B902811135C00F2EF3E0CF2ED12CF02D41
S11302501DC0C601880F991F880F991F880F991F09
S1130260A501940104C056954795379527958A951D
S1130270D2F7CA01B901AE014F5F5F4FC7010E94B7
S1130280B902811115C031E0C31AD108DD200CF781
S1130290103411F061E001C065E9183409F467E82D
S11302A0AE014F5F5F4FC7010E94B90201C08EEFDC
S11302B00F90DF91CF911F91FF90EF90DF90CF903F
S11302C0BF90AF909F908F900895BF92CF92DF928E
S11302D0EF92FF920F931F93CF93DF931F92CDB7AB
S11302E0DEB77C01B62E6A0110E0AE014F5F5F4FAE
S11302F06FEFC7010E94B9021F5F8F3F11F4111104
S1130300F4CF112329F1082F0E7F21F0F601808309
S11303100DEF1FC0F6018083F1E0FB1570F010C0F3
S1130320AE014F5F5F4F6FEFC7010E94B902F60144
S1130330E10FF11D80831F5F01C011E01B1580F3E5
S1130340AE014F5F5F4F6FEFC7010E94B90201C05A
S11303500FEF802F0F90DF91CF911F910F91FF909E
S1130360EF90DF90CF90BF900895EF92FF921F938C
S1130370CF93DF93CDB7DEB727970FB6F894DEBFE0
S11303800FBECDBF7C0119821A82FE01339685E02F
S1130390DF011D928A95E9F760E170E083E290E065
S11303A00E94850060E170E083E290E00E948A0090
S11303B010E008C0AE014F5F5F4F6FEFC7010E94AE
S11303C0B9021F5F1830B0F360E170E083E290E09F
S11303D00E948F0020E030E0A90160E0C7010E9484
S11303E00501811107C0AE014E5F5F4F61E0C70197
S11303F00E9465018A81813029F52AEA31E040E0D2
S113040050E068E0C7010E940501811107C0AE01F8
S11304104D5F5F4F65E0C7010E9465019B8191308C
S113042049F4811107C08E81813061F48F818A3A49
S113043049F402C0953031F460E170E083E290E069
S11304400E948A0027960FB6F894DEBF0FBECDBF78
S1130450DF91CF911F91FF90EF9008958230A8F023
S11304608138A8F48150982F9695892B982F9695CA
S11304709695892B982F92959F70892B982F991F69
S11304809927991F892B8F5F089581E0089580E84B
S113049008950E942E028031C1F028F4823079F050
S11304A0883079F006C0803431F0803831F0803201
S11304B051F080E0089582E0089583E0089584E097
S11304C0089585E0089586E0089581E00895CF9326
S11304D0DF93EC019A01AB018881837F8883888153
S11304E08064888388818061888388818F7D888304
S11304F060E074E284EF90E00E941703822F0E9470
S113050049029881282F2370922B9883998186958C
S11305108695892B8983CC34D105C9F460E270E0D7
S113052083E290E00E94850060E270E083E290E064
S11305300E948A0060E870E083E290E00E948500F7
S113054060E870E083E290E00E948F000FC0CC3A34
S1130550D10561F48DB188608DB98AB180688AB99A
S11305608EB188608EB98BB18F778BB9DF91CF91C3
S11305700895FC01628320E030E091812F5F3F4FBA
S113058099231CF021153105C1F7232B21F48FEF9A
S1130590FA0180830895892F807496FF05C08281B3
S11305A0FA0180838EEF08959281FA019083089571
S11305B0FC01158287E684831082128286E082839E
S11305C0118288E181830895FC01908195FFFDCF1C
S11305D066830895EF92FF920F931F93CF93DF9357
S11305E07C018B01D42F411118C0FB016081C0E054
S11305F008C0C7010E94E402CF5FF801EC0FF11DAF
S113060060816111F6CF0CC0F801EC0FF11D60811F
S1130610C7010E94E402CF5F01C0C0E0CD17A0F380
S1130620DF91CF911F910F91FF90EF900895A1E278
S11306301A2EAA1BBB1BFD010DC0AA1FBB1FEE1F58
S1130640FF1FA217B307E407F50720F0A21BB30BA3
S1130650E40BF50B661F771F881F991F1A9469F71F
S113066060957095809590959B01AC01BD01CF017B
S10906700895F894FFCF89
S111067653746172740A0053746F700A0000AA
S9030000FC
