S01300004578706572696D656E74332E73726563BD
S11300000C9470000C948D000C948D000C948D0055
S11300100C948D000C948D000C948D000C948D0028
S11300200C948D000C948D000C948D000C948D0018
S11300300C948D000C948D000C948D000C948D0008
S11300400C948D000C948D000C948D000C948D00F8
S11300500C948D000C948D000C948D000C948D00E8
S11300600C948D000C948D000C948D000C948D00D8
S11300700C948D000C948D000C948D000C948D00C8
S11300800C948D000C948D000C948D000C948D00B8
S11300900C948D000C948D000C948D000C948D00A8
S11300A00C948D000C948D000C948D000C948D0098
S11300B00C948D000C948D000C948D000C948D0088
S11300C00C948D000C948D000C948D001A04120471
S11300D00A040204FA03F203EA03E203DA03D20392
S11300E011241FBECFEFD8E0DEBFCDBF11E0A0E0EA
S11300F0B1E0E6E2F9E002C005900D92A437B10741
S1130100D9F721E0A4E7B1E001C01D92A437B207FA
S1130110E1F70E949F000C9491040C940000FC01F0
S11301202181622B61830895FC012281622B628309
S11301300895FC0192816095692362830895CF93A9
S1130140DF93CDB7DEB72E970FB6F894DEBF0FBEA0
S1130150CDBF60E875E280EC90E00E942A0460E87C
S113016075E288EC90E00E942A0460E875E280ED74
S113017090E00E942A0440E85AE166E070E08CE4D2
S113018090E00E94390382E5898387E0E0E1F1E0B1
S1130190DE01129601900D928A95E1F786E0E7E17F
S11301A0F1E0DE01199601900D928A95E1F760E184
S11301B083E290E00E948F0046E0BE016E5F7F4FB5
S11301C088EC90E00E943C048CE490E00E94CC0116
S11301D0882329F0682F88EC90E00E94C5034FE043
S11301E060E071E088EC90E00E943C04AE014F5F57
S11301F05F4F6FEF8CE490E00E94A603811102C070
S11302008823A1F345E0BE01675F7F4F88EC90E04F
S11302100E943C04698188EC90E00E9436046AE004
S113022088EC90E00E94360480E090E02E960FB6B1
S1130230F894DEBF0FBECDBFDF91CF9108950E9429
S1130240990008950E94940008958F929F92AF920E
S1130250BF92EF92FF920F931F93CF93DF931F925E
S1130260CDB7DEB76034E0F549015A017C01162FA1
S11302701064AE014F5F5F4F612F0E94A60381118E
S113028030C004E01CC0402F50E041505109440FDD
S1130290551F440F551F440F551FC501B40104C019
S11302A096958795779567954A95D2F7AE014F5FF6
S11302B05F4FC7010E94A603811113C001500111B1
S11302C0E2CF103411F061E001C065E9183409F49B
S11302D067E8AE014F5F5F4FC7010E94A60301C0EC
S11302E08EEF0F90DF91CF911F910F91FF90EF90C0
S11302F0BF90AF909F908F900895CF92DF92EF922E
S1130300FF920F931F93CF93DF931F92CDB7DEB766
S11303107C01062F6A01198210E0AE014F5F5F4F26
S11303206FEFC7010E94A6031F5F89818F3F11F4FD
S11303301111F3CF112329F1982F9E7F21F0F6019B
S113034080838DEF1FC0F6018083023078F411C0E2
S1130350AE014F5F5F4F6FEFC7010E94A603F60126
S1130360E10FF11D898180831F5F01C011E0011736
S113037078F7AE014F5F5F4F6FEFC7010E94A6038E
S113038001C08FEF0F90DF91CF911F910F91FF90DC
S1130390EF90DF90CF9008958F929F92AF92BF928B
S11303A0CF92DF92EF92FF921F93CF93DF9300D00F
S11303B000D000D0CDB7DEB77C011982FE013296A1
S11303C085E0DF011D928A95E9F760E183E290E020
S11303D00E94220110E008C0AE014F5F5F4F6FEF33
S11303E0C7010E9487031F5F1830B0F360E183E206
S11303F090E00E941F0120E030E0A90160E0C70105
S11304000E94250181110CC0AE014E5F5F4F61E077
S1130410C7010E947D0160E183E290E00E94220115
S11304208A81813009F0BCC060E183E290E00E94DF
S11304301F012AEA31E040E050E068E0C7010E9471
S11304402501182F81110DC0AE014E5F5F4F65E08D
S1130450C7010E947D01182F60E183E290E00E94B1
S113046022018A81813059F4111109C08D818130B2
S113047009F098C08E818A3A49F01CEFAEC08530ED
S113048009F092C0812C912C540105C0812C912C2F
S113049054016894B6F860E183E290E00E941F0181
S11304A020E030E0A9016AE3C7010E94250181111F
S11304B07DC0AE014E5F5F4F65E0C7010E947D01C4
S11304C0182F60E183E290E00E942201111170C0B4
S11304D08A81813009F06EC08C818C7F8C3F09F059
S11304E06BC0C12CD12C34C060E183E290E00E9447
S11304F01F0120E030E0A90167E3C7010E94250144
S113050081115CC0AE014E5F5F4F61E0C7010E9484
S11305107D018A81813009F053C0A501940169E20B
S1130520C7010E94250181114DC0AE014E5F5F4F8E
S113053061E0C7010E947D01811146C0BFEFCB1A63
S1130540DB0A09F443C060E183E290E00E942201E7
S11305501A811111C9CF60E183E290E00E941F016A
S113056020E030E0A9016AE3C7010E94250181115E
S11305702FC0AE014E5F5F4F65E0C7010E947D0151
S1130580F82E60E183E290E00E942201F11022C083
S11305908B8188230CF5807C803CF9F019EF1DC019
S11305A01BEF1BC01CEF19C01AEF17C019EF15C0C1
S11305B019EF13C019EF11C019EF0FC018EF0DC0D8
S11305C018EF0BC017EF09C017EF07C016EF05C0EF
S11305D019EF03C019EF01C019EF812F26960FB64A
S11305E0F894DEBF0FBECDBFDF91CF911F91FF9076
S11305F0EF90DF90CF90BF90AF909F908F90089531
S11306008230A8F08138A8F48150982F9695892BD0
S1130610982F96959695892B982F92959F70892B54
S1130620982F991F9927991F892B8F5F089581E02F
S1130630089580E808950E9400038031C1F028F4F1
S1130640823079F0883079F006C0803431F0803817
S113065031F0803251F080E0089582E0089583E023
S1130660089584E0089585E0089586E0089581E082
S11306700895CF93DF93EC019A01AB018881837FC6
S11306808883888180648883888180618883888165
S11306908F7D888360E074E284EF90E00E946904B7
S11306A0822F0E941B039881282F2370922B9883FA
S11306B0998186958695892B8983CC34D105A9F4B3
S11306C060E283E290E00E948F0060E283E290E0C7
S11306D00E94940060E883E290E00E948F0060E84A
S11306E083E290E00E9499000FC0CC3AD10561F4F6
S11306F08DB188608DB98AB180688AB98EB18860FD
S11307008EB98BB18F778BB9DF91CF910895FC01AE
S1130710628320E030E091812F5F3F4F99231CF0EA
S113072021153105C1F7232B21F48FEFFA018083C2
S11307300895892F807496FF05C08281FA01808311
S11307408EEF08959281FA0190830895FC016283EB
S113075020E030E091812F5F3F4F99231CF0211559
S11307603105C1F7232B21F48FEFFA01808308951B
S1130770892F807496FF05C08281FA0180838EEFF1
S113078008959281FA0190830895862F90E0FC01E8
S1130790E65FF109EA30F10508F054C0EA59FF4F69
S11307A00C948B0448E06DE171E088EC90E00E94C9
S11307B03C04089544E066E271E088EC90E00E9415
S11307C03C04089543E06BE271E088EC90E00E9401
S11307D03C0408954CE06FE271E088EC90E00E94E4
S11307E03C04089545E06CE371E088EC90E00E94DD
S11307F03C04089545E062E471E088EC90E00E94D6
S11308003C04089546E068E471E088EC90E00E94BE
S11308103C04089546E06FE471E088EC90E00E94A7
S11308203C04089546E066E571E088EC90E00E949F
S11308303C0408954AE06DE571E088EC90E00E9484
S11308403C0408954BE068E671E088EC90E00E9477
S11308503C040895FC01158287E684831082128289
S113086086E08283118288E181830895FC0190816E
S113087095FFFDCF66830895EF92FF920F931F9328
S1130880CF93DF937C018B01D42F411118C0FB015E
S11308906081C0E008C0C7010E943604CF5FF80140
S11308A0EC0FF11D60816111F6CF0CC0F801EC0F63
S11308B0F11D6081C7010E943604CF5F01C0C0E012
S11308C0CD17A0F3DF91CF911F910F91FF90EF907F
S11308D00895A1E21A2EAA1BBB1BFD010DC0AA1F7D
S11308E0BB1FEE1FFF1FA217B307E407F50720F095
S11308F0A21BB30BE40BF50B661F771F881F991F10
S11309001A9469F760957095809590959B01AC0158
S1130910BD01CF010895EE0FFF1F0590F491E02D66
S10909200994F894FFCFD6
S1130926534420696E697469616C697A65640A0066
S113093653746172740A0053746F700A0074696D9B
S1130946656F75740A005350490A0053440A0056E9
S11309564F4C54414745212121210A00434D44303F
S11309660A00434D44380A00434D4435380A0043CF
S11309764D4435350A00434D4434310A00434D4451
S1130986343154494D450A00696D706F7373696259
S10709966C650A007E
S9030000FC
