:100000000C9466000C9483000C9483000C94830081
:100010000C9483000C9483000C9483000C94830054
:100020000C9483000C9483000C9483000C94830044
:100030000C9483000C9483000C9483000C94830034
:100040000C9483000C9483000C9483000C94830024
:100050000C9483000C9483000C9483000C94830014
:100060000C9483000C9483000C9483000C94830004
:100070000C9483000C9483000C9483000C948300F4
:100080000C9483000C9483000C9483000C948300E4
:100090000C9483000C9483000C9483000C948300D4
:1000A0000C9483000C9483000C9483000C948300C4
:1000B0000C9483000C9483000C9483000C948300B4
:1000C0000C9483000C9483000C94830011241FBEB5
:1000D000CFEFD8E0DEBFCDBF11E0A0E0B1E0E0E7B8
:1000E000F7E002C005900D92A435B107D9F721E0E1
:1000F000A4E5B1E001C01D92A435B207E1F70E946A
:1001000095000C94B6030C940000FC012181622B35
:1001100061830895FC012281622B62830895FC01B2
:1001200092816095692362830895CF93DF93CDB761
:10013000DEB72E970FB6F894DEBF0FBECDBF60E8D6
:1001400075E280EC90E00E94550360E875E288EC6F
:1001500090E00E94550360E875E280ED90E00E9417
:10016000550340E85AE166E070E08CE490E00E94BC
:100170007B0282E5898387E0E0E1F1E0DE0112960F
:1001800001900D928A95E1F786E0E7E1F1E0DE016A
:10019000199601900D928A95E1F760E170E083E293
:1001A00090E00E94850046E050E0BE016E5F7F4F08
:1001B00088EC90E00E9467038CE490E00E94CA0102
:1001C000882331F0682F70E088EC90E00E940B03E8
:1001D0004FE050E060E071E088EC90E00E9467033F
:1001E000AE014F5F5F4F6FEF70E08CE490E00E94D4
:1001F000EC02811102C0882399F345E050E0BE0172
:10020000675F7F4F88EC90E00E946703698188EC0C
:1002100090E00E9461036AE088EC90E00E94610334
:1002200080E090E02E960FB6F894DEBF0FBECDBFF3
:10023000DF91CF91089570E00E948F00089570E0E3
:100240000E948A0008958F929F92AF92BF92EF9280
:10025000FF920F931F93CF93DF931F92CDB7DEB71B
:100260006034E0F549015A017C01162F1064AE019B
:100270004F5F5F4F612F0E94EC02811130C004E09C
:100280001CC0402F50E041505109440F551F440FEE
:10029000551F440F551FC501B40104C0969587959D
:1002A000779567954A95D2F7AE014F5F5F4FC701CB
:1002B0000E94EC02811113C001500111E2CF1034F1
:1002C00011F061E001C065E9183409F467E8AE0196
:1002D0004F5F5F4FC7010E94EC0201C08EEF0F908D
:1002E000DF91CF911F910F91FF90EF90BF90AF9052
:1002F0009F908F900895CF92DF92EF92FF920F938D
:100300001F93CF93DF931F92CDB7DEB77C01062FEB
:100310006A01198210E0AE014F5F5F4F6FEFC701B6
:100320000E94EC021F5F89818F3F11F41111F3CFFE
:10033000112329F1982F9E7F21F0F60180838DEF04
:100340001FC0F6018083023078F411C0AE014F5F08
:100350005F4F6FEFC7010E94EC02F601E10FF11D44
:10036000898180831F5F01C011E0011778F7AE011A
:100370004F5F5F4F6FEFC7010E94EC0201C08FEF2C
:100380000F90DF91CF911F910F91FF90EF90DF9031
:10039000CF900895EF92FF921F93CF93DF93CDB745
:1003A000DEB727970FB6F894DEBF0FBECDBF7C0136
:1003B00019821A82FE01339685E0DF011D928A952B
:1003C000E9F760E183E290E00E941F0110E008C0BD
:1003D000AE014F5F5F4F6FEFC7010E94CD021F5FFD
:1003E0001830B0F360E183E290E00E941B0120E04E
:1003F00030E0A90160E0C7010E942301811107C01C
:10040000AE014E5F5F4F61E0C7010E947B018A81B0
:10041000813039F52AEA31E040E050E068E0C70178
:100420000E942301811107C0AE014D5F5F4F65E05F
:10043000C7010E947B019B81923050F4811108C05A
:100440008E81813081F48F818A3A21F08CEF0EC049
:10045000953059F460E183E290E00E941F0180E052
:1004600005C08BEF03C08CEF01C08AEF27960FB653
:10047000F894DEBF0FBECDBFDF91CF911F91FF90EB
:10048000EF9008958230A8F08138A8F48150982F19
:100490009695892B982F96959695892B982F9295BE
:1004A0009F70892B982F991F9927991F892B8F5FF0
:1004B000089581E0089580E808950E944202803105
:1004C000C1F028F4823079F0883079F006C08034A9
:1004D00031F0803831F0803251F080E0089582E0D0
:1004E000089583E0089584E0089585E0089586E006
:1004F000089581E00895CF93DF93EC019A01AB0159
:100500008881837F888388818064888388818061F3
:10051000888388818F7D888360E074E284EF90E037
:100520000E949403822F0E945D029881282F2370DD
:10053000922B9883998186958695892B8983CC34D3
:10054000D105C9F460E270E083E290E00E9485008A
:1005500060E270E083E290E00E948A0060E870E070
:1005600083E290E00E94850060E870E083E290E022
:100570000E948F000FC0CC3AD10561F48DB1886024
:100580008DB98AB180688AB98EB188608EB98BB115
:100590008F778BB9DF91CF910895FC01628320E0C2
:1005A00030E091812F5F3F4F99231CF021153105D9
:1005B000C1F7232B21F48FEFFA0180830895892F4F
:1005C000807496FF05C08281FA0180838EEF0895C2
:1005D0009281FA0190830895FC01628320E030E06B
:1005E00091812F5F3F4F99231CF021153105C1F7F1
:1005F000232B21F48FEFFA0180830895892F8074D3
:1006000096FF05C08281FA0180838EEF0895928162
:10061000FA01908308956C3F21F128F46A3F99F123
:100620006B3F41F139C06E3F51F090F048E050E02F
:100630006DE171E088EC90E00E946703089544E06A
:1006400050E066E271E088EC90E00E946703089554
:1006500043E050E06BE271E088EC90E00E946703B9
:1006600008954CE050E06FE271E088EC90E00E9469
:100670006703089545E050E06CE371E088EC90E09A
:100680000E946703089545E050E062E471E088EC61
:1006900090E00E94670308954BE050E068E471E049
:1006A00088EC90E00E9467030895FC01158287E6BC
:1006B00084831082128286E08283118288E18183A2
:1006C0000895FC01908195FFFDCF66830895EF9218
:1006D000FF920F931F93CF93DF937C018B01D42F55
:1006E000411118C0FB016081C0E008C0C7010E9431
:1006F0006103CF5FF801EC0FF11D60816111F6CF4E
:100700000CC0F801EC0FF11D6081C7010E9461036C
:10071000CF5F01C0C0E0CD17A0F3DF91CF911F9153
:100720000F91FF90EF900895A1E21A2EAA1BBB1B18
:10073000FD010DC0AA1FBB1FEE1FFF1FA217B307AD
:10074000E407F50720F0A21BB30BE40BF50B661FC3
:10075000771F881F991F1A9469F760957095809587
:1007600090959B01AC01BD01CF010895F894FFCF96
:10077000534420696E697469616C697A65640A0022
:1007800053746172740A0053746F700A0074696D57
:10079000656F75740A005350490A0053440A0056A5
:1007A0004F4C54414745212121210A00434D4430FB
:1007B0000A00434D44380A00696D706F73736962B3
:0407C0006C650A005A
:00000001FF
