:100000000C9492000C94AF000C94AF000C94AF00D1
:100010000C94AF000C94AF000C94AF000C94AF00A4
:100020000C94AF000C94AF000C94AF000C94AF0094
:100030000C94AF000C94AF000C94AF000C94AF0084
:100040000C94AF000C94AF000C94AF000C94AF0074
:100050000C94AF000C94AF000C94AF000C94AF0064
:100060000C94AF000C94AF000C94AF000C94AF0054
:100070000C94AF000C94AF000C94AF000C94AF0044
:100080000C94AF000C94AF000C94AF000C94AF0034
:100090000C94AF000C94AF000C94AF000C94AF0024
:1000A0000C94AF000C94AF000C94AF000C94AF0014
:1000B0000C94AF000C94AF000C94AF000C94AF0004
:1000C0000C94AF000C94AF000C94AF006E06760653
:1000D00066065E0656064E0646063E0636062E06A0
:1000E00026061E06416464722E204F666673657490
:1000F00020202030202031202032202033202034A6
:10010000202035202036202037202038202039207C
:100110002041202042202043202044202045202030
:10012000460A0D0011241FBECFEFD8E0DEBFCDBFC1
:1001300011E0A0E0B1E0E8E7F4E102C005900D9223
:10014000A83BB107D9F722E0A8EBB1E001C01D92AE
:10015000A830B207E1F70E9451010C943A0A0C94BE
:100160000000FC012181622B61830895FC01228142
:10017000622B62830895FC019281609569236283FA
:1001800008958F929F92AF92BF92EF92FF920F933A
:100190001F93CF93DF93CDB7DEB72B970FB6F894AD
:1001A000DEBF0FBECDBF7C0180E008C0E1E0F0E023
:1001B000EC0FFD1FE80FF11D10828F5F8B30B0F345
:1001C00088248A94982C540100E0C7010E9490066C
:1001D000182F80ED810F8A3068F4612FC7010E94CB
:1001E0008A06E1E0F0E0EC0FFD1FE00FF11D108347
:1001F0000F5F2DC0183011F01F37A9F40150E1E056
:10020000F0E0EC0FFD1FE00FF11D108268E0C70168
:100210000E948A0660E2C7010E948A0668E0C70160
:100220000E948A0614C01D3021F01A3011F01E32CF
:1002300071F4CE0101960E9414074B015C016DE040
:10024000C7010E948A066AE0C7010E948A060A3036
:1002500071F4CE0101960E9414074B015C016DE020
:10026000C7010E948A066AE0C7010E948A068FEFD2
:1002700088169806A806B80609F4A7CFC501B401E8
:100280002B960FB6F894DEBF0FBECDBFDF91CF9196
:100290001F910F91FF90EF90BF90AF909F908F9024
:1002A0000895CF92DF92EF92FF92CF93DF93CDB775
:1002B000DEB7CD50D2400FB6F894DEBF0FBECDBF33
:1002C00060E875E280EC90E00E947E0660E875E2EE
:1002D00088EC90E00E947E0660E875E280ED90E098
:1002E0000E947E0640E85AE166E070E08CE490E00F
:1002F0000E94650587E0E7E3F1E0DE01AF5FBD4FF7
:1003000001900D928A95E1F786E0EEE3F1E0DE01DF
:10031000A85FBD4F01900D928A95E1F760E183E2FD
:1003200090E00E94B10046E0BE016F5F7D4F88EC17
:1003300090E00E94BF068CE490E00E946403882352
:1003400029F0682F88EC90E00E94110640E052E10D
:100350006AE770E08CE490E00E9465054FE060E0A1
:1003600071E088EC90E00E94BF0645E160E171E039
:1003700088EC90E00E94BF0688EC90E00E94C100EB
:100380006B017C0142E165E271E088EC90E00E9443
:10039000BF0660E183E290E00E94B702A7019601E8
:1003A00061E18CE490E00E94BD02882331F0682F67
:1003B00088EC90E00E94110618C0AE014F5F5F4FBD
:1003C00060E072E08CE490E00E94B004882331F099
:1003D000682F88EC90E00E94110607C060E072E090
:1003E000CE0101960E948F02C0CF45E0BE01685F3A
:1003F0007D4F88EC90E00E94BF066AE088EC90E0B8
:100400000E948A0680E090E0C35FDD4F0FB6F8944B
:10041000DEBF0FBECDBFDF91CF91FF90EF90DF9099
:10042000CF900895CF92DF92FF920F931F93CF93B7
:10043000DF938C016B010E949606F82ED92F0C0DCC
:100440001D1D1F930F9384E491E09F938F93DF937F
:10045000FF920E94500740E06F2D7D2F88EC90E0C6
:100460000E94BF06DF92CF9288E491E09F938F9322
:10047000DF93FF920E94500740E06F2D7D2F88ECA4
:1004800090E00E94BF068DB79EB70C960FB6F89409
:100490009EBF0FBE8DBFC0E01CC0F801EC0FF11D68
:1004A00080811F928F9322E531E03F932F93DF935A
:1004B000FF920E94500740E06F2D7D2F88EC90E066
:1004C0000E94BF06CF5F0F900F900F900F900F907C
:1004D0000F90C03110F3C0E00EC0F801EC0FF11D19
:1004E000608180EE860F803608F06EE288EC90E046
:1004F0000E948A06CF5FC03180F36DE088EC90E007
:100500000E948A066AE088EC90E00E948A06DF91E9
:10051000CF911F910F91FF90DF90CF900895EF92B0
:10052000FF920F931F93CF93DF937C018B010E9467
:100530009606EC0140E0BC0184EE90E00E94990632
:1005400040E0BE0188EC90E00E94BF06C0E0D0E031
:10055000BE01C7010E9412026096C017D107C0F306
:10056000DF91CF911F910F91FF90EF9008950E941E
:10057000BB0008950E94B60008958F929F92AF929B
:10058000BF92EF92FF920F931F93CF93DF931F922F
:10059000CDB7DEB76034E0F549015A017C01162F72
:1005A0001064AE014F5F5F4F612F0E94F205811111
:1005B00030C004E01CC0402F50E041505109440FAE
:1005C000551F440F551F440F551FC501B40104C0EA
:1005D00096958795779567954A95D2F7AE014F5FC7
:1005E0005F4FC7010E94F205811113C00150011134
:1005F000E2CF103411F061E001C065E9183409F46C
:1006000067E8AE014F5F5F4FC7010E94F20501C06E
:100610008EEF0F90DF91CF911F910F91FF90EF9090
:10062000BF90AF909F908F900895CF92DF92EF92FE
:10063000FF920F931F93CF93DF931F92CDB7DEB737
:100640007C01062F6A01198210E0AE014F5F5F4FF7
:100650006FEFC7010E94F2051F5F89818F3F11F480
:100660001111F3CF112329F1982F9E7F21F0F6016C
:1006700080838DEF1FC0F6018083023078F411C0B3
:10068000AE014F5F5F4F6FEFC7010E94F205F601A9
:10069000E10FF11D898180831F5F01C011E0011707
:1006A00078F7AE014F5F5F4F6FEFC7010E94F20511
:1006B00001C08FEF0F90DF91CF911F910F91FF90AD
:1006C000EF90DF90CF9008958F929F92AF92BF925C
:1006D000EF92FF920F931F93CF93DF93CDB7DEB7C7
:1006E00029970FB6F894DEBF0FBECDBF7C011982EB
:1006F000FE01329688E0DF011D928A95E9F760E1FC
:1007000083E290E00E94BA0210E008C0AE014F5FA1
:100710005F4F6FEFC7010E94B3051F5F1830B0F342
:1007200060E183E290E00E94B70220E030E0A9019E
:1007300060E0C7010E94BD0281110CC0AE014E5F96
:100740005F4F61E0C7010E94150360E183E290E022
:100750000E94BA028A81813009F0D0C060E183E250
:1007600090E00E94B7022AEA31E040E050E068E001
:10077000C7010E94BD02182F81110DC0AE014E5F4E
:100780005F4F65E0C7010E941503182F60E183E207
:1007900090E00E94BA028A81813059F4111109C097
:1007A0008D81813009F0ACC08E818A3A49F08CEF9E
:1007B000C6C0853009F0A6C0812C912C540105C01B
:1007C000812C912C54016894B6F860E183E290E0AA
:1007D0000E94B70220E030E0A9016AE3C7010E944D
:1007E000BD02811191C0AE014E5F5F4F65E0C70150
:1007F0000E941503182F60E183E290E00E94BA0284
:10080000111184C08A81813009F082C08C818C7F73
:100810008C3F09F07FC000E010E033C060E183E26C
:1008200090E00E94B70220E030E0A90167E3C70131
:100830000E94BD02811170C0AE014E5F5F4F61E04A
:10084000C7010E9415038A81813009F067C0A501A4
:10085000940169E2C7010E94BD02811161C0AE012D
:100860004E5F5F4F61E0C7010E94150381115AC0BE
:100870000F5F1F4F09F458C060E183E290E00E94CF
:10088000BA028A818111CACF60E183E290E00E94BE
:10089000B70220E030E0A9016AE3C7010E94BD026F
:1008A000811144C0AE014E5F5F4F65E0C7010E94F9
:1008B0001503182F60E183E290E00E94BA02111143
:1008C00037C08B818823B4F5807C803CA9F560E13A
:1008D00083E290E00E94B70220E032E040E050E086
:1008E00060E1C7010E94BD02182F811127C060E19D
:1008F00083E290E00E94BA02812F21C08BEF1FC0DB
:100900008CEF1DC08AEF1BC089EF19C089EF17C09B
:1009100089EF15C089EF13C088EF11C088EF0FC0B1
:1009200087EF0DC087EF0BC086EF09C089EF07C0C6
:1009300089EF05C089EF03C089EF01C085EF2996D3
:100940000FB6F894DEBF0FBECDBFDF91CF911F91E0
:100950000F91FF90EF90BF90AF909F908F90089570
:100960008F929F92AF92BF92CF92DF92EF92FF92BF
:100970000F931F93CF93DF931F92CDB7DEB77C0108
:100980005B016A01198210E0AE014F5F5F4F6FEFAC
:10099000C7010E94F2051F5F9981992324F48111F8
:1009A00002C01111F1CF811144C0911144C000E087
:1009B000AE014F5F5F4F6FEFC7010E94F205182F26
:1009C0000F5F89818F3F21F4111102C00111F0CF17
:1009D0008E3F99F5BE016F5F7F4FC7010E94D20520
:1009E0008981F601808388248394912C10C0AE0104
:1009F0004F5F5F4F6FEFC7010E94F205182FF6019E
:100A0000E80DF91D89818083FFEF8F1A9F0A8A14F0
:100A10009B0468F300E009C0AE014F5F5F4F6FEFCA
:100A2000C7010E94B305182F0F5F0330A8F3812F71
:100A300005C08BEF03C08DEF01C08FEF0F90DF91EA
:100A4000CF911F910F91FF90EF90DF90CF90BF90CB
:100A5000AF909F908F9008958230A8F08138A8F4CD
:100A60008150982F9695892B982F96959695892B3E
:100A7000982F92959F70892B982F991F9927991FCE
:100A8000892B8F5F089581E0089580E808950E9482
:100A90002C058031C1F028F4823079F0883079F06B
:100AA00006C0803431F0803831F0803251F080E07F
:100AB000089582E0089583E0089584E0089585E034
:100AC000089586E0089581E00895CF93DF93EC01C7
:100AD0009A01AB018881837F8883888180648883C1
:100AE00088818061888388818F7D888360E074E25B
:100AF00084EF90E00E94EC06822F0E9447059881C7
:100B0000282F2370922B9883998186958695892B1F
:100B10008983CC34D105A9F460E283E290E00E949D
:100B2000B10060E283E290E00E94B60060E883E2F8
:100B300090E00E94B10060E883E290E00E94BB0078
:100B40000FC0CC3AD10561F48DB188608DB98AB1FE
:100B500080688AB98EB188608EB98BB18F778BB976
:100B6000DF91CF910895FC01628320E030E0918114
:100B70002F5F3F4F99231CF021153105C1F7232B1F
:100B800021F48FEFFA0180830895892F807496FFF6
:100B900005C08281FA0180838EEF08959281FA0167
:100BA00090830895FC018FEF828320E030E09181F3
:100BB0002F5F3F4F99231CF021153105C1F7232BDF
:100BC00021F48FEFFB0180830895892F807496FFB5
:100BD00005C08281FB0180838EEF08959281FB0125
:100BE00090830895FC01628320E030E091812F5FC3
:100BF0003F4F99231CF021153105C1F7232B21F418
:100C00008FEFFA0180830895892F807496FF05C0C5
:100C10008281FA0180838EEF08959281FA01908398
:100C20000895862F90E0FC01E45FF109EC30F105B6
:100C300008F05CC0EA59FF4F0C940E0748E069E5E4
:100C400071E088EC90E00E94BF06089544E062E6FF
:100C500071E088EC90E00E94BF06089543E067E6EB
:100C600071E088EC90E00E94BF0608954CE06BE6CE
:100C700071E088EC90E00E94BF06089545E068E7C7
:100C800071E088EC90E00E94BF06089545E06EE7B1
:100C900071E088EC90E00E94BF06089546E064E8A9
:100CA00071E088EC90E00E94BF06089546E06BE892
:100CB00071E088EC90E00E94BF06089546E062E98A
:100CC00071E088EC90E00E94BF0608954AE069E96F
:100CD00071E088EC90E00E94BF06089546E064EA67
:100CE00071E088EC90E00E94BF0608954BE06BEA4B
:100CF00071E088EC90E00E94BF060895FC01158227
:100D000087E684831082128286E08283118288E1E2
:100D100081830895FC01908195FFFDCF668308953E
:100D2000FC0190819923ECF78681089588EB91E08E
:100D30000895CF93DF93DC0141111AC0242F30E0D6
:100D4000FD01E20FF31FE491EB01C20FD31FE88313
:100D50004F5FE111F3CF0FC0292F30E0FD01E20F0B
:100D6000F31FE491EB01C20FD31FE8839F5F01C023
:100D700090E0941788F3842FDF91CF910895EF923C
:100D8000FF920F931F93CF93DF937C018B01D42F9E
:100D9000411118C0FB016081C0E008C0C7010E947A
:100DA0008A06CF5FF801EC0FF11D60816111F6CF6B
:100DB0000CC0F801EC0FF11D6081C7010E948A068A
:100DC000CF5F01C0C0E0CD17A0F3DF91CF911F919D
:100DD0000F91FF90EF900895A1E21A2EAA1BBB1B62
:100DE000FD010DC0AA1FBB1FEE1FFF1FA217B307F7
:100DF000E407F50720F0A21BB30BE40BF50B661F0D
:100E0000771F881F991F1A9469F7609570958095D0
:100E100090959B01AC01BD01CF010895EE0FFF1F1E
:100E20000590F491E02D09941F93FC0199278827E0
:100E3000BC01E89411911032E9F3193010F01E3022
:100E4000C8F31B3251F01D3249F4689406C00E9469
:100E50003B07610F711D811D911D119110531A30B7
:100E6000B0F33EF490958095709561957F4F8F4FCC
:100E70009F4F1F910895592F482F372F262F660F08
:100E8000771F881F991F660F771F881F991F620F92
:100E9000731F841F951F660F771F881F991F089562
:100EA000AEE0B0E0E6E5F7E00C94110A0D891E898A
:100EB00086E08C831A8309838FEF9FE79E838D835F
:100EC000AE01475E5F4F6F89788DCE0101960E941B
:100ED0007207EF81F885E00FF11F10822E96E4E093
:100EE0000C942D0AABE0B0E0E8E7F7E00C94030ABD
:100EF0006C017B018A01FC0117821682838181FFCC
:100F0000CCC1CE0101963C01F6019381F70193FD1E
:100F1000859193FF81917F01882309F4BAC18532BD
:100F200039F493FD859193FF81917F01853229F4F6
:100F3000B60190E00E946909E7CF912C212C312C59
:100F4000FFE1F315D8F08B3279F038F4803279F084
:100F50008332A1F4232D20611DC08D3261F08033D6
:100F600069F4232D216016C0832D8260382EE32D75
:100F7000E4603E2E2AC0F32DF8601DC037FC2DC062
:100F800020ED280F2A3040F08E32B9F436FC81C1B2
:100F9000232D2064322E19C036FE06C08AE0989EAA
:100FA000200D1124922E11C0EAE02E9E200D112456
:100FB000222EF32DF0623F2E08C08C3621F4832DB3
:100FC0008068382E02C0883641F4F70193FD859180
:100FD00093FF81917F018111B3CF982F9F7D95540D
:100FE000933028F40C5F1F4F9FE399830DC0833625
:100FF00031F0833771F0833509F059C021C0F80111
:10100000808189830E5F1F4F88248394912C530124
:1010100013C02801F2E04F0E511CF801A080B180EE
:1010200036FE03C0692D70E002C06FEF7FEFC5018F
:101030000E945E094C018201F32DFF773F2E16C0FE
:10104000280122E0420E511CF801A080B18036FE3A
:1010500003C0692D70E002C06FEF7FEFC5010E94F1
:1010600053094C01F32DF0683F2E820133FC1BC065
:10107000822D90E088169906B0F4B60180E290E0E7
:101080000E9469092A94F4CFF50137FC859137FE57
:1010900081915F01B60190E00E94690921102A94B4
:1010A00021E0821A91088114910471F7E8C0843616
:1010B00011F0893641F5F80137FE07C06081718172
:1010C000828193810C5F1F4F08C060817181072E60
:1010D000000C880B990B0E5F1F4FF32DFF763F2EF0
:1010E00097FF09C090958095709561957F4F8F4FC0
:1010F0009F4FF0683F2E2AE030E0A3010E94A5092F
:10110000882E861845C0853731F4232D2F7EB22EC8
:101110002AE030E025C0932D997FB92E8F36C1F09B
:1011200018F4883579F0B5C0803719F0883721F088
:10113000B0C0E92FE061BE2EB4FE0DC0FB2DF460FF
:10114000BF2E09C034FE0AC0292F2660B22E06C069
:1011500028E030E005C020E130E002C020E132E0CC
:10116000F801B7FE07C060817181828193810C5FB5
:101170001F4F06C06081718180E090E00E5F1F4FBD
:10118000A3010E94A509882E8618FB2DFF773F2E0C
:1011900036FE0DC0232D2E7FA22E891458F434FE66
:1011A0000BC032FC09C0832D8E7EA82E05C0B82C42
:1011B000A32C03C0B82C01C0B92CA4FE0FC0FE01A3
:1011C000E80DF11D8081803321F49A2D997EA92E9E
:1011D00009C0A2FE06C0B394B39404C08A2D8678D9
:1011E00009F0B394A3FC11C0A0FE06C0B21488F4A9
:1011F000280C922C9B180EC0B21460F4B60180E249
:1012000090E00E946909B394F7CFB21418F42B1838
:1012100002C0982C212CA4FE10C0B60180E390E0FF
:101220000E946909A2FE17C0A1FC03C088E790E0F4
:1012300002C088E590E0B6010CC08A2D867859F08E
:10124000A1FE02C08BE201C080E2A7FC8DE2B601E4
:1012500090E00E946909891438F4B60180E390E0B7
:101260000E9469099A94F7CF8A94F301E80DF11D61
:101270008081B60190E00E9469098110F5CF22209B
:1012800009F442CEB60180E290E00E9469092A94F6
:10129000F6CFF6018681978102C08FEF9FEF2B96E4
:1012A000E2E10C941F0AFC010590615070400110AE
:1012B000D8F7809590958E0F9F1F0895FC0161507F
:1012C000704001900110D8F7809590958E0F9F1F68
:1012D00008950F931F93CF93DF93FB01238121FD8B
:1012E00003C08FEF9FEF2CC022FF16C046815781AD
:1012F000248135814217530744F4A081B1819D01B7
:101300002F5F3F4F318320838C93268137812F5F5E
:101310003F4F3783268314C08B01EC01FB0100840F
:10132000F185E02D0995892BE1F6D80116968D916E
:101330009C911797019617969C938E931697CE01C2
:10134000DF91CF911F910F910895FA01AA272830BC
:1013500051F1203181F1E8946F936E7F6E5F7F4F82
:101360008F4F9F4FAF4FB1E03ED0B4E03CD0670FFE
:10137000781F891F9A1FA11D680F791F8A1F911D51
:10138000A11D6A0F711D811D911DA11D20D009F4A1
:1013900068943F912AE0269F11243019305D3193E3
:1013A000DEF6CF010895462F4770405D4193B3E0CC
:1013B0000FD0C9F7F6CF462F4F70405D4A3318F073
:1013C000495D31FD4052419302D0A9F7EACFB4E024
:1013D000A6959795879577956795BA95C9F70097DC
:1013E0006105710508959B01AC010A2E069457957D
:1013F000479537952795BA95C9F7620F731F841FD4
:10140000951FA01D08952F923F924F925F926F9269
:101410007F928F929F92AF92BF92CF92DF92EF9284
:10142000FF920F931F93CF93DF93CDB7DEB7CA1B05
:10143000DB0B0FB6F894DEBF0FBECDBF09942A8830
:10144000398848885F846E847D848C849B84AA84D8
:10145000B984C884DF80EE80FD800C811B81AA8165
:10146000B981CE0FD11D0FB6F894DEBF0FBECDBF30
:08147000ED010895F894FFCF8F
:10147800534420696E697469616C697A65640A000D
:10148800496E70757420426C6F636B204E756D6287
:1014980065723A0A0052656164696E6720426C6F32
:1014A800636B2E2E2E0A0053746172740A005374F3
:1014B8006F700A0025702000307825342E345820AB
:1014C800200025322E3258200074696D656F7574BE
:1014D8000A005350490A0053440A00564F4C5441DD
:1014E8004745212121210A00434D44300A00434D3C
:1014F80044380A00434D4435380A00434D443535D5
:101508000A00434D4434310A00434D4434315449B0
:101518004D450A00544F4B454E0A00696D706F7374
:081528007369626C650A0000A2
:00000001FF
