S01C000048656C6C6F5F456D6265646465645F576F726C642E7372656344
S11300000C9466000C9478000C9478000C9478009E
S11300100C9478000C9478000C9478000C9478007C
S11300200C9478000C9478000C9478000C9478006C
S11300300C9478000C9478000C9478000C9478005C
S11300400C9478000C9478000C9478000C9478004C
S11300500C9478000C9478000C9478000C9478003C
S11300600C9478000C9478000C9478000C9478002C
S11300700C9478000C9478000C9478000C9478001C
S11300800C9478000C9478000C9478000C9478000C
S11300900C9478000C9478000C9478000C947800FC
S11300A00C9478000C9478000C9478000C947800EC
S11300B00C9478000C9478000C9478000C947800DC
S11300C00C9478000C9478000C94780011241FBED2
S11300D0CFEFD8E0DEBFCDBF21E0A0E0B1E001C0AA
S11300E01D92A035B207E1F70E947A000C94A0019A
S11300F00C940000CF93DF931F92CDB7DEB760E876
S113010075E280EC90E00E94690160E875E288EC99
S113011090E00E94690160E875E280ED90E00E9441
S113012069010E947B0140EA55E266E270E08CE4DA
S113013090E00E94F70040EA55E266E270E08CEA43
S113014090E00E94F70082E38983698188EC90E063
S11301500E947501AE014F5F5F4F60E170E08CEA71
S113016090E00E946701892B49F4BE016F5F7F4FC5
S11301708CEA90E00E942E01892B39F380E090E014
S11301800F90DF91CF910895823080F0813880F410
S11301908150982F9695892B982F96959695892B13
S11301A0982F92959F70892B8F5F089581E0089511
S11301B080E808950E94C400803179F030F48230E0
S11301C091F0883091F485E00895803441F08038CE
S11301D041F0803251F486E0089581E0089582E090
S11301E0089583E0089584E0089580E00895CF930E
S11301F0DF93EC019A01AB018881837F8883888136
S11302008064888388818061888388818062888310
S113021060E074E284EF90E00E947E01822F0E94ED
S1130220DA009881282F2370922B988399818695E0
S11302308695892B8983CC34D10531F484B1806AC5
S113024084B92D9A2F9807C0CC3AD10521F46B9A22
S1130250579A739A5F98DF91CF910895FC01DB015F
S11302608FEF828380E090E02181019627FD03C017
S11302700097D1F702C0892B19F48FEF8C9308955E
S1130280822F807426FF04C082818C938EEF0895A0
S113029092819C930895FC01DA01628380E090E0EE
S11302A02181019627FD03C00097D1F702C0892B55
S11302B019F48FEF8C930895822F807426FF04C065
S11302C082818C938EEF089592819C9308950C946F
S11302D04B01FC01158287E684831082128286E03A
S11302E08283118288E181830895FC01208125FFA6
S11302F0FCCF6683089580E091E00895A1E21A2E70
S1130300AA1BBB1BFD010DC0AA1FBB1FEE1FFF1FB5
S1130310A217B307E407F50720F0A21BB30BE40B05
S1130320F50B661F771F881F991F1A9469F760954C
S11303307095809590959B01AC01BD01CF01089506
S1070340F894FFCF5B
S9030000FC
