S01C000048656C6C6F5F456D6265646465645F576F726C642E7372656344
S11300000C9466000C9478000C9478000C9478009E
S11300100C9478000C9478000C9478000C9478007C
S11300200C9478000C9478000C9478000C9478006C
S11300300C9478000C9478000C9478000C9478005C
S11300400C9478000C9478000C9478000C9478004C
S11300500C9478000C9478000C9478000C9478003C
S11300600C9478000C9478000C9478000C9478002C
S11300700C9478000C9478000C9478000C9478001C
S11300800C9478000C9478000C9478000C9478000C
S11300900C9478000C9478000C9478000C947800FC
S11300A00C9478000C9478000C9478000C947800EC
S11300B00C9478000C9478000C9478000C947800DC
S11300C00C9478000C9478000C94780011241FBED2
S11300D0CFEFD8E0DEBFCDBF21E0A0E0B1E001C0AA
S11300E01D92A035B207E1F70E948A000C948A01A0
S11300F00C940000FC012181622B61830895FC01B2
S11301002281622B62830895FC01928160956923A8
S113011062830895CF93DF931F92CDB7DEB760E873
S113012075E280EC90E00E94590160E875E288EC89
S113013090E00E94590160E875E280ED90E00E9431
S113014059010E94650140EA55E266E270E08CE4E0
S113015090E00E94F20040EA55E266E270E08CEA28
S113016090E00E94F20082E58983AE014F5F5F4F09
S11301706CEA70E08CE490E00E943D01F6CF82309E
S113018080F0813880F48150982F9695892B982F90
S113019096959695892B982F92959F70892B8F5FB2
S11301A0089581E0089580E808950E94BF00803199
S11301B079F030F4823091F0883091F485E008953C
S11301C0803441F0803841F0803251F486E0089563
S11301D081E0089582E0089583E0089584E008951D
S11301E080E00895CF93DF93EC019A01AB018881FD
S11301F0837F888388818064888388818061888301
S113020088818062888360E074E284EF90E00E94D9
S11302106801822F0E94D5009881282F2370922B89
S11302209883998186958695892B8983CC34D105C9
S1130230D1F460E270E083E290E00E947A0060E230
S113024070E083E290E00E947F0060E870E083E267
S113025090E00E947A0060E870E083E290E0DF9131
S1130260CF910C948400CC3AD10521F46B9A579A1F
S1130270739A5F98DF91CF910895FC01DA0162834C
S113028080E090E02181019627FD03C00097D1F71B
S113029002C0892B19F48FEF8C930895822F8074F8
S11302A026FF04C082818C938EEF089592819C93E3
S11302B00895FC01158287E684831082128286E009
S11302C08283118288E18183089580E091E008951A
S11302D0A1E21A2EAA1BBB1BFD010DC0AA1FBB1F46
S11302E0EE1FFF1FA217B307E407F50720F0A21BB8
S11302F0B30BE40BF50B661F771F881F991F1A9425
S113030069F760957095809590959B01AC01BD014E
S10B0310CF010895F894FFCF1A
S9030000FC
